{
  "contractName": "Reputation",
  "abi": [
    {
      "anonymous": false,
      "inputs": [
        {
          "indexed": true,
          "name": "_id",
          "type": "bytes32"
        },
        {
          "indexed": false,
          "name": "_name",
          "type": "string"
        }
      ],
      "name": "Requested",
      "type": "event"
    },
    {
      "anonymous": false,
      "inputs": [
        {
          "indexed": true,
          "name": "_id",
          "type": "bytes32"
        },
        {
          "indexed": false,
          "name": "_name",
          "type": "string"
        }
      ],
      "name": "Recommended",
      "type": "event"
    },
    {
      "anonymous": false,
      "inputs": [
        {
          "indexed": true,
          "name": "_id",
          "type": "bytes32"
        },
        {
          "indexed": false,
          "name": "_from",
          "type": "string"
        },
        {
          "indexed": false,
          "name": "_fromId",
          "type": "bytes32"
        }
      ],
      "name": "Received",
      "type": "event"
    },
    {
      "constant": false,
      "inputs": [
        {
          "name": "_name",
          "type": "string"
        },
        {
          "name": "_from",
          "type": "bytes32"
        },
        {
          "name": "_to",
          "type": "bytes32"
        }
      ],
      "name": "requestRecommendation",
      "outputs": [
        {
          "name": "",
          "type": "bool"
        }
      ],
      "payable": false,
      "stateMutability": "nonpayable",
      "type": "function"
    },
    {
      "constant": false,
      "inputs": [
        {
          "name": "_to",
          "type": "bytes32"
        },
        {
          "name": "_from",
          "type": "bytes32"
        },
        {
          "name": "_percentage",
          "type": "uint256"
        }
      ],
      "name": "recommend",
      "outputs": [],
      "payable": false,
      "stateMutability": "nonpayable",
      "type": "function"
    },
    {
      "constant": true,
      "inputs": [
        {
          "name": "_id",
          "type": "bytes32"
        }
      ],
      "name": "getRepo",
      "outputs": [
        {
          "name": "",
          "type": "uint256"
        }
      ],
      "payable": false,
      "stateMutability": "view",
      "type": "function"
    },
    {
      "constant": false,
      "inputs": [
        {
          "name": "name",
          "type": "string"
        },
        {
          "name": "repo",
          "type": "uint256"
        },
        {
          "name": "_id",
          "type": "bytes32"
        }
      ],
      "name": "register",
      "outputs": [],
      "payable": false,
      "stateMutability": "nonpayable",
      "type": "function"
    },
    {
      "constant": false,
      "inputs": [],
      "name": "refilTokens",
      "outputs": [],
      "payable": false,
      "stateMutability": "nonpayable",
      "type": "function"
    },
    {
      "constant": false,
      "inputs": [
        {
          "name": "_id",
          "type": "bytes32"
        },
        {
          "name": "repo",
          "type": "uint256"
        }
      ],
      "name": "updateRepo",
      "outputs": [],
      "payable": false,
      "stateMutability": "nonpayable",
      "type": "function"
    },
    {
      "constant": true,
      "inputs": [
        {
          "name": "_id",
          "type": "bytes32"
        }
      ],
      "name": "getName",
      "outputs": [
        {
          "name": "",
          "type": "string"
        }
      ],
      "payable": false,
      "stateMutability": "view",
      "type": "function"
    }
  ],
  "bytecode": "0x608060405234801561001057600080fd5b50610e36806100206000396000f300608060405260043610610083576000357c0100000000000000000000000000000000000000000000000000000000900463ffffffff168063064812e1146100885780633a2155371461012557806354b8d5e31461016a57806394837e5e14610214578063a8fc100a1461025d578063b94624fe146102de578063cf957f6914610319575b600080fd5b34801561009457600080fd5b5061010b600480360381019080803590602001908201803590602001908080601f016020809104026020016040519081016040528093929190818152602001838380828437820191505050505050919291929080356000191690602001909291908035600019169060200190929190505050610330565b604051808215151515815260200191505060405180910390f35b34801561013157600080fd5b506101546004803603810190808035600019169060200190929190505050610492565b6040518082815260200191505060405180910390f35b34801561017657600080fd5b5061019960048036038101908080356000191690602001909291905050506104b6565b6040518080602001828103825283818151815260200191508051906020019080838360005b838110156101d95780820151818401526020810190506101be565b50505050905090810190601f1680156102065780820380516001836020036101000a031916815260200191505b509250505060405180910390f35b34801561022057600080fd5b5061025b6004803603810190808035600019169060200190929190803560001916906020019092919080359060200190929190505050610573565b005b34801561026957600080fd5b506102dc600480360381019080803590602001908201803590602001908080601f0160208091040260200160405190810160405280939291908181526020018383808284378201915050505050509192919290803590602001909291908035600019169060200190929190505050610a8b565b005b3480156102ea57600080fd5b50610317600480360381019080803560001916906020019092919080359060200190929190505050610bb9565b005b34801561032557600080fd5b5061032e610c2a565b005b60008060006001026000191684600019161415801561035b5750600060010260001916836000191614155b151561036657600080fd5b600160008460001916600019168152602001908152602001600020600301905080849080600181540180825580915050906001820390600052602060002001600090919290919091509060001916905550806001600085600019166000191681526020019081526020016000206003019080546103e4929190610cc2565b5083600019167fa6a4540de1452ee981f2a4a334838be8efdd992ea8067e906d974427494dac8b866040518080602001828103825283818151815260200191508051906020019080838360005b8381101561044c578082015181840152602081019050610431565b50505050905090810190601f1680156104795780820380516001836020036101000a031916815260200191505b509250505060405180910390a260019150509392505050565b60008060008360001916600019168152602001908152602001600020549050919050565b60606002600083600019166000191681526020019081526020016000208054600181600116156101000203166002900480601f0160208091040260200160405190810160405280929190818152602001828054600181600116156101000203166002900480156105675780601f1061053c57610100808354040283529160200191610567565b820191906000526020600020905b81548152906001019060200180831161054a57829003601f168201915b50505050509050919050565b6000806000806000806000600160008a600019166000191681526020019081526020016000206003019650600187805490501480156105d2575089600019168760008154811015156105c157fe5b906000526020600020015460001916145b15610614578660018880549050038154811015156105ec57fe5b90600052602060002001600090558680548091906001900361060e9190610d14565b50610710565b600094505b60018780549050038511151561066b57896000191687600081548110151561063d57fe5b906000526020600020015460001916141561065e578495506001935061066b565b8480600101955050610619565b831561070a578594505b60018780549050038510156106cd57866001860181548110151561069557fe5b906000526020600020015487868154811015156106ae57fe5b9060005260206000200181600019169055508480600101955050610675565b8660018880549050038154811015156106e257fe5b9060005260206000200160009055868054809190600190036107049190610d14565b5061070f565b600080fd5b5b86600160008b6000191660001916815260200190815260200160002060030190805461073d929190610cc2565b5060018060008b6000191660001916815260200190815260200160002060010160008282829054906101000a900460ff160392506101000a81548160ff021916908360ff16021790555060018060008c6000191660001916815260200190815260200160002060010160018282829054906101000a900460ff160192506101000a81548160ff021916908360ff160217905550600160008a60001916600019168152602001908152602001600020600201549250878302915060648281151561080257fe5b04915081600160008c6000191660001916815260200190815260200160002060020160008282540192505081905550600160008b60001916600019168152602001908152602001600020600201546000808c6000191660001916815260200190815260200160002081905550600160008b6000191660001916815260200190815260200160002060040190508089908060018154018082558091505090600182039060005260206000200160009091929091909150906000191690555088600019167f3d253a4ee1263d0a7b88ac798601336c374653c7470683bd4ca4d2af1a0780a0600260008d6000191660001916815260200190815260200160002060405180806020018281038252838181546001816001161561010002031660029004815260200191508054600181600116156101000203166002900480156109895780601f1061095e57610100808354040283529160200191610989565b820191906000526020600020905b81548152906001019060200180831161096c57829003601f168201915b50509250505060405180910390a289600019167fbb7e370981f80ba873451e1231b05df178f261fe9eaf1854dc1e989b93d44ff5600260008c600019166000191681526020019081526020016000208b60405180806020018360001916600019168152602001828103825284818154600181600116156101000203166002900481526020019150805460018160011615610100020316600290048015610a705780601f10610a4557610100808354040283529160200191610a70565b820191906000526020600020905b815481529060010190602001808311610a5357829003601f168201915b5050935050505060405180910390a250505050505050505050565b6000808314151515610a9c57600080fd5b600060010260001916826000191614151515610ab757600080fd5b82600080846000191660001916815260200190815260200160002081905550600160008360001916600019168152602001908152602001600020905082816002018190555083816000019080519060200190610b14929190610d40565b5060058160010160006101000a81548160ff021916908360ff16021790555060058160010160016101000a81548160ff021916908360ff1602179055506003829080600181540180825580915050906001820390600052602060002001600090919290919091509060001916905550836002600084600019166000191681526020019081526020016000209080519060200190610bb2929190610d40565b5050505050565b600081600080856000191660001916815260200190815260200160002054016000808560001916600019168152602001908152602001600020819055506001600084600019166000191681526020019081526020016000209050818160020160008282540192505081905550505050565b600080600091505b600380549050821015610cbe5760016000600384815481101515610c5257fe5b906000526020600020015460001916600019168152602001908152602001600020905060058160010160006101000a81548160ff021916908360ff16021790555060058160010160016101000a81548160ff021916908360ff1602179055508180600101925050610c32565b5050565b828054828255906000526020600020908101928215610d035760005260206000209182015b82811115610d02578254825591600101919060010190610ce7565b5b509050610d109190610dc0565b5090565b815481835581811115610d3b57818360005260206000209182019101610d3a9190610dc0565b5b505050565b828054600181600116156101000203166002900490600052602060002090601f016020900481019282601f10610d8157805160ff1916838001178555610daf565b82800160010185558215610daf579182015b82811115610dae578251825591602001919060010190610d93565b5b509050610dbc9190610de5565b5090565b610de291905b80821115610dde576000816000905550600101610dc6565b5090565b90565b610e0791905b80821115610e03576000816000905550600101610deb565b5090565b905600a165627a7a7230582039d9e7154c69714b17c584bcc8d29a41aaca73f3e4476cc65fb33e5a21b1b17e0029",
  "source": "pragma solidity ^0.4.20;\n\ncontract Reputation{\n  /*  \n    struct Recommend{\n        string name;\n        bytes32 id;\n        uint recToken;\n    }\n    \n    struct Request{\n        string name;\n        bytes32 id;\n    }*/\n    \n    struct Profile{\n        string name;\n        uint8 send;\n        uint8 receive;\n        uint repo;\n        bytes32[] reqs;\n        bytes32[] recs;\n    }\n    \n    mapping(bytes32=>uint) _repo;\n    mapping(bytes32=>Profile) _status;\n    mapping(bytes32=>string) _names;\n    bytes32[] enrolled;\n    \n    event Requested(bytes32 indexed _id, string _name);\n    event Recommended(bytes32 indexed _id, string _name);\n    event Received(bytes32 indexed _id, string _from, bytes32 _fromId);\n    \n    function requestRecommendation(string _name, bytes32 _from, bytes32 _to) public returns(bool){\n        require(_from!=bytes32(0) && _to!=bytes32(0));\n        //adding to request queue of recommender\n        bytes32[] _reqs=_status[_to].reqs;\n        _reqs.push(_from);\n        _status[_to].reqs=_reqs;\n        emit Requested(_from, _name);\n        return true;\n    }\n    \n    function recommend(bytes32 _to,bytes32 _from, uint _percentage){\n        \n        //deleting from request queue of recommender\n        bytes32[] _reqs=_status[_from].reqs;\n        if(_reqs.length==1 && _reqs[0] == _to){\n         delete _reqs[_reqs.length-1];\n         _reqs.length--;}\n       else{\n           uint index; uint j; bool check;\n           for( j=0;j<=_reqs.length-1;j++){\n              if(_reqs[0] == _to){\n                  index=j;\n                  check=true;\n                  break;\n          }}\n          if(check){\n            for ( j = index; j<_reqs.length-1; j++){\n                _reqs[j] = _reqs[j+1];\n            }\n            delete _reqs[_reqs.length-1];\n            _reqs.length--;\n            \n        }\n        else{\n            revert();\n        }\n        \n       }\n       _status[_from].reqs=_reqs;\n      _status[_from].send-=1;\n      _status[_to].receive+=1;\n\n       \n       //assigning reputation score\n      // uint score=_status[_to].repo;\n       uint ref_score=_status[_from].repo;\n       uint update=ref_score*_percentage;\n       update=update/100;\n      // score=score+update;\n       _status[_to].repo+=update;\n       _repo[_to]=_status[_to].repo;\n       \n       //Adding to recommendation of receiver\n        bytes32[] _recs=_status[_to].recs;\n        _recs.push(_from);\n        \n        //events\n        emit Recommended(_from, _names[_to]);\n        emit Received(_to, _names[_from], _from);\n        \n      \n    }\n    \n    function getRepo(bytes32 _id) view returns (uint){\n        return _repo[_id];\n    }\n    \n    \n    function register(string name,uint repo,bytes32 _id) public{\n        require(repo!=0);\n        require(_id!=bytes32(0));\n        _repo[_id]=repo;\n         Profile p=_status[_id];\n         p.repo=repo;\n         p.name=name;\n         p.send=5;\n         p.receive=5;\n         enrolled.push(_id);\n         _names[_id]=name;\n           \n    }\n    \n    function refilTokens() public{\n        for(uint i=0;i<enrolled.length;i++){\n            Profile p=_status[enrolled[i]];\n            p.send=5;\n            p.receive=5;\n        }\n    }\n    \n    function updateRepo(bytes32 _id,uint repo) public{\n        _repo[_id]=_repo[_id]+repo;\n         Profile p=_status[_id];\n         //uint x=p.repo;\n         p.repo+=repo;\n    }\n    \n    function getName(bytes32 _id) view public returns(string){\n        return _names[_id];\n    }\n    \n    \n    \n}\n",
  "sourcePath": "/home/urja/Hackathon_Con/udyog/udyog/contracts/Reputation.sol",
  "compiler": {
    "name": "solc",
    "version": "0.4.24+commit.e67f0147.Emscripten.clang"
  },
  "schemaVersion": "2.0.0",
  "updatedAt": "2018-07-13T15:33:50.089Z"
}