{
  "contractName": "Reputation",
  "abi": [
    {
      "anonymous": false,
      "inputs": [
        {
          "indexed": true,
          "name": "_id",
          "type": "bytes32"
        },
        {
          "indexed": false,
          "name": "_name",
          "type": "string"
        },
        {
          "indexed": false,
          "name": "skill",
          "type": "string"
        },
        {
          "indexed": false,
          "name": "_to",
          "type": "bytes32"
        }
      ],
      "name": "Requested",
      "type": "event"
    },
    {
      "anonymous": false,
      "inputs": [
        {
          "indexed": true,
          "name": "_id",
          "type": "bytes32"
        },
        {
          "indexed": false,
          "name": "_name",
          "type": "string"
        }
      ],
      "name": "Recommended",
      "type": "event"
    },
    {
      "anonymous": false,
      "inputs": [
        {
          "indexed": true,
          "name": "_id",
          "type": "bytes32"
        },
        {
          "indexed": false,
          "name": "_from",
          "type": "string"
        },
        {
          "indexed": false,
          "name": "_fromId",
          "type": "bytes32"
        }
      ],
      "name": "Received",
      "type": "event"
    },
    {
      "anonymous": false,
      "inputs": [
        {
          "indexed": true,
          "name": "_toId",
          "type": "bytes32"
        },
        {
          "indexed": true,
          "name": "_fromId",
          "type": "bytes32"
        }
      ],
      "name": "attested",
      "type": "event"
    },
    {
      "constant": false,
      "inputs": [
        {
          "name": "_from",
          "type": "bytes32"
        },
        {
          "name": "_to",
          "type": "bytes32"
        },
        {
          "name": "skill",
          "type": "string"
        }
      ],
      "name": "requestRecommendation",
      "outputs": [
        {
          "name": "",
          "type": "bool"
        }
      ],
      "payable": false,
      "stateMutability": "nonpayable",
      "type": "function"
    },
    {
      "constant": false,
      "inputs": [
        {
          "name": "_to",
          "type": "bytes32"
        },
        {
          "name": "_from",
          "type": "bytes32"
        },
        {
          "name": "_percentage",
          "type": "uint256"
        },
        {
          "name": "skill",
          "type": "string"
        }
      ],
      "name": "recommend",
      "outputs": [],
      "payable": false,
      "stateMutability": "nonpayable",
      "type": "function"
    },
    {
      "constant": true,
      "inputs": [
        {
          "name": "_id",
          "type": "bytes32"
        }
      ],
      "name": "getRepo",
      "outputs": [
        {
          "name": "",
          "type": "uint256"
        }
      ],
      "payable": false,
      "stateMutability": "view",
      "type": "function"
    },
    {
      "constant": false,
      "inputs": [
        {
          "name": "name",
          "type": "string"
        },
        {
          "name": "repo",
          "type": "uint256"
        },
        {
          "name": "_id",
          "type": "bytes32"
        }
      ],
      "name": "register",
      "outputs": [],
      "payable": false,
      "stateMutability": "nonpayable",
      "type": "function"
    },
    {
      "constant": false,
      "inputs": [],
      "name": "refilTokens",
      "outputs": [],
      "payable": false,
      "stateMutability": "nonpayable",
      "type": "function"
    },
    {
      "constant": false,
      "inputs": [
        {
          "name": "_id",
          "type": "bytes32"
        }
      ],
      "name": "addUniv",
      "outputs": [],
      "payable": false,
      "stateMutability": "nonpayable",
      "type": "function"
    },
    {
      "constant": false,
      "inputs": [
        {
          "name": "_id",
          "type": "bytes32"
        },
        {
          "name": "repo",
          "type": "uint256"
        }
      ],
      "name": "updateRepo",
      "outputs": [],
      "payable": false,
      "stateMutability": "nonpayable",
      "type": "function"
    },
    {
      "constant": true,
      "inputs": [
        {
          "name": "_id",
          "type": "bytes32"
        }
      ],
      "name": "getName",
      "outputs": [
        {
          "name": "",
          "type": "string"
        }
      ],
      "payable": false,
      "stateMutability": "view",
      "type": "function"
    },
    {
      "constant": false,
      "inputs": [
        {
          "name": "_to",
          "type": "bytes32"
        },
        {
          "name": "_from",
          "type": "bytes32"
        }
      ],
      "name": "attest",
      "outputs": [],
      "payable": false,
      "stateMutability": "nonpayable",
      "type": "function"
    },
    {
      "constant": true,
      "inputs": [
        {
          "name": "id",
          "type": "bytes32"
        }
      ],
      "name": "getRequests",
      "outputs": [
        {
          "name": "",
          "type": "bytes32[]"
        }
      ],
      "payable": false,
      "stateMutability": "view",
      "type": "function"
    },
    {
      "constant": true,
      "inputs": [
        {
          "name": "id",
          "type": "bytes32"
        }
      ],
      "name": "getRecs",
      "outputs": [
        {
          "name": "",
          "type": "bytes32[]"
        }
      ],
      "payable": false,
      "stateMutability": "view",
      "type": "function"
    },
    {
      "constant": true,
      "inputs": [
        {
          "name": "id",
          "type": "bytes32"
        },
        {
          "name": "skill",
          "type": "string"
        }
      ],
      "name": "getSkillScore",
      "outputs": [
        {
          "name": "",
          "type": "uint256"
        }
      ],
      "payable": false,
      "stateMutability": "view",
      "type": "function"
    },
    {
      "constant": false,
      "inputs": [
        {
          "name": "skill",
          "type": "string"
        }
      ],
      "name": "getSkillAddr",
      "outputs": [
        {
          "name": "",
          "type": "bytes32[]"
        }
      ],
      "payable": false,
      "stateMutability": "nonpayable",
      "type": "function"
    },
    {
      "constant": false,
      "inputs": [
        {
          "name": "skill",
          "type": "string"
        }
      ],
      "name": "sort",
      "outputs": [
        {
          "name": "",
          "type": "bytes32[]"
        }
      ],
      "payable": false,
      "stateMutability": "nonpayable",
      "type": "function"
    }
  ],
  "bytecode": "0x608060405234801561001057600080fd5b50611ad0806100206000396000f3006080604052600436106100cf576000357c0100000000000000000000000000000000000000000000000000000000900463ffffffff1680629a8930146100d457806317e5b6271461017157806332e7a8481461022f5780633a215537146102b557806354b8d5e3146102fa57806357a8e66a146103a45780635a20d6c61461042f5780638acbf78e146104b5578063a1a62070146104f4578063a8fc100a14610525578063b94624fe146105a6578063cf957f69146105e1578063d147b0fc146105f8578063f570e4dd146106b6575b600080fd5b3480156100e057600080fd5b5061015760048036038101908080356000191690602001909291908035600019169060200190929190803590602001908201803590602001908080601f0160208091040260200160405190810160405280939291908181526020018383808284378201915050505050509192919290505050610745565b604051808215151515815260200191505060405180910390f35b34801561017d57600080fd5b506101d8600480360381019080803590602001908201803590602001908080601f0160208091040260200160405190810160405280939291908181526020018383808284378201915050505050509192919290505050610ac0565b6040518080602001828103825283818151815260200191508051906020019060200280838360005b8381101561021b578082015181840152602081019050610200565b505050509050019250505060405180910390f35b34801561023b57600080fd5b5061025e6004803603810190808035600019169060200190929190505050610be2565b6040518080602001828103825283818151815260200191508051906020019060200280838360005b838110156102a1578082015181840152602081019050610286565b505050509050019250505060405180910390f35b3480156102c157600080fd5b506102e46004803603810190808035600019169060200190929190505050610c5c565b6040518082815260200191505060405180910390f35b34801561030657600080fd5b506103296004803603810190808035600019169060200190929190505050610c80565b6040518080602001828103825283818151815260200191508051906020019080838360005b8381101561036957808201518184015260208101905061034e565b50505050905090810190601f1680156103965780820380516001836020036101000a031916815260200191505b509250505060405180910390f35b3480156103b057600080fd5b506104196004803603810190808035600019169060200190929190803590602001908201803590602001908080601f0160208091040260200160405190810160405280939291908181526020018383808284378201915050505050509192919290505050610d3d565b6040518082815260200191505060405180910390f35b34801561043b57600080fd5b5061045e6004803603810190808035600019169060200190929190505050610ddf565b6040518080602001828103825283818151815260200191508051906020019060200280838360005b838110156104a1578082015181840152602081019050610486565b505050509050019250505060405180910390f35b3480156104c157600080fd5b506104f260048036038101908080356000191690602001909291908035600019169060200190929190505050610e59565b005b34801561050057600080fd5b506105236004803603810190808035600019169060200190929190505050610f51565b005b34801561053157600080fd5b506105a4600480360381019080803590602001908201803590602001908080601f0160208091040260200160405190810160405280939291908181526020018383808284378201915050505050509192919290803590602001909291908035600019169060200190929190505050610f74565b005b3480156105b257600080fd5b506105df600480360381019080803560001916906020019092919080359060200190929190505050611022565b005b3480156105ed57600080fd5b506105f6611061565b005b34801561060457600080fd5b5061065f600480360381019080803590602001908201803590602001908080601f01602080910402602001604051908101604052809392919081815260200183838082843782019150505050505091929192905050506110f9565b6040518080602001828103825283818151815260200191508051906020019060200280838360005b838110156106a2578082015181840152602081019050610687565b505050509050019250505060405180910390f35b3480156106c257600080fd5b506107436004803603810190808035600019169060200190929190803560001916906020019092919080359060200190929190803590602001908201803590602001908080601f01602080910402602001604051908101604052809392919081815260200183838082843782019150505050505091929192905050506111d3565b005b600080600080600102600019168660001916141580156107715750600060010260001916856000191614155b801561078557508460001916866000191614155b151561079057600080fd5b60006005856040518082805190602001908083835b6020831015156107ca57805182526020820191506020810190506020830392506107a5565b6001836020036101000a03801982511681845116808217855250505050505090500191505090815260200160405180910390205414801561080d57506000600754145b15610896576007546005856040518082805190602001908083835b60208310151561084d5780518252602082019150602081019050602083039250610828565b6001836020036101000a03801982511681845116808217855250505050505090500191505090815260200160405180910390208190555060016007600082825401925050819055505b6001600086600019166000191681526020019081526020016000206001019050808690806001815401808255809150509060018203906000526020600020016000909192909190915090600019169055508060016000876000191660001916815260200190815260200160002060010190805461091492919061195c565b506001806000886000191660001916815260200190815260200160002060000160008282829054906101000a900460ff160392506101000a81548160ff021916908360ff16021790555085600019167fe64d1b69c77b5e1dc1c28bf9f36867f6146260b0fcb8e3d3c9ded208e6ae6c1660026000896000191660001916815260200190815260200160002086886040518080602001806020018460001916600019168152602001838103835286818154600181600116156101000203166002900481526020019150805460018160011615610100020316600290048015610a3c5780601f10610a1157610100808354040283529160200191610a3c565b820191906000526020600020905b815481529060010190602001808311610a1f57829003601f168201915b5050838103825285818151815260200191508051906020019080838360005b83811015610a76578082015181840152602081019050610a5b565b50505050905090810190601f168015610aa35780820380516001836020036101000a031916815260200191505b509550505050505060405180910390a26001925050509392505050565b60606000806005846040518082805190602001908083835b602083101515610afd5780518252602082019150602081019050602083039250610ad8565b6001836020036101000a0380198251168184511680821785525050505050509050019150509081526020016040518091039020549150600660008381526020019081526020016000206008908054610b5692919061195c565b50600090505b600160088054905003811015610b8457610b7681836117e3565b508080600101915050610b5c565b6008805480602002602001604051908101604052809291908181526020018280548015610bd457602002820191906000526020600020905b81546000191681526020019060010190808311610bbc575b505050505092505050919050565b6060600160008360001916600019168152602001908152602001600020600101805480602002602001604051908101604052809291908181526020018280548015610c5057602002820191906000526020600020905b81546000191681526020019060010190808311610c38575b50505050509050919050565b60008060008360001916600019168152602001908152602001600020549050919050565b60606002600083600019166000191681526020019081526020016000208054600181600116156101000203166002900480601f016020809104026020016040519081016040528092919081815260200182805460018160011615610100020316600290048015610d315780601f10610d0657610100808354040283529160200191610d31565b820191906000526020600020905b815481529060010190602001808311610d1457829003601f168201915b50505050509050919050565b6000600460006005846040518082805190602001908083835b602083101515610d7b5780518252602082019150602081019050602083039250610d56565b6001836020036101000a03801982511681845116808217855250505050505090500191505090815260200160405180910390205481526020019081526020016000206000846000191660001916815260200190815260200160002054905092915050565b6060600160008360001916600019168152602001908152602001600020600201805480602002602001604051908101604052809291908181526020018280548015610e4d57602002820191906000526020600020905b81546000191681526020019060010190808311610e35575b50505050509050919050565b60008060008060008087600019166000191681526020019081526020016000205493506000808660001916600019168152602001908152602001600020549250600384029150606482811515610eab57fe5b049150600a83029050606481811515610ec057fe5b0490508060008088600019166000191681526020019081526020016000206000828254019250508190555081600080876000191660001916815260200190815260200160002060008282540192505081905550846000191686600019167f80f44bef7de40cb989d35de0ea89adc77ab0ecad6ae24a9b070ea9ca518a958d60405160405180910390a3505050505050565b603260008083600019166000191681526020019081526020016000208190555050565b60008214158015610f915750600060010260001916816000191614155b1515610f9c57600080fd5b81600080836000191660001916815260200190815260200160002081905550600381908060018154018082558091505090600182039060005260206000200160009091929091909150906000191690555082600260008360001916600019168152602001908152602001600020908051906020019061101c9291906119ae565b50505050565b80600080846000191660001916815260200190815260200160002054016000808460001916600019168152602001908152602001600020819055505050565b600080600091505b6003805490508210156110f5576001600060038481548110151561108957fe5b906000526020600020015460001916600019168152602001908152602001600020905060058160000160006101000a81548160ff021916908360ff16021790555060058160000160016101000a81548160ff021916908360ff1602179055508180600101925050611069565b5050565b6060600660006005846040518082805190602001908083835b6020831015156111375780518252602082019150602081019050602083039250611112565b6001836020036101000a03801982511681845116808217855250505050505090500191505090815260200160405180910390205481526020019081526020016000208054806020026020016040519081016040528092919081815260200182805480156111c757602002820191906000526020600020905b815460001916815260200190600101908083116111af575b50505050509050919050565b600080600080600080600080600160008c600019166000191681526020019081526020016000206001019750600160008d6000191660001916815260200190815260200160002060020196506001888054905014801561125357508b6000191688600081548110151561124257fe5b906000526020600020015460001916145b156112955787600189805490500381548110151561126d57fe5b90600052602060002001600090558780548091906001900361128f9190611a2e565b50611390565b600094505b6001888054905003851115156112eb578b6000191688868154811015156112bd57fe5b90600052602060002001546000191614156112de57849550600193506112eb565b848060010195505061129a565b831561138a578594505b600188805490500385101561134d57876001860181548110151561131557fe5b9060005260206000200154888681548110151561132e57fe5b90600052602060002001816000191690555084806001019550506112f5565b87600189805490500381548110151561136257fe5b9060005260206000200160009055878054809190600190036113849190611a2e565b5061138f565b600080fd5b5b87600160008d600019166000191681526020019081526020016000206001019080546113bd92919061195c565b50896000808d60001916600019168152602001908152602001600020540292506064838115156113e957fe5b0492506005896040518082805190602001908083835b60208310151561142457805182526020820191506020810190506020830392506113ff565b6001836020036101000a0380198251168184511680821785525050505050509050019150509081526020016040518091039020549150826004600084815260200190815260200160002060008e6000191660001916815260200190815260200160002060008282540192505081905550600660008381526020019081526020016000208c9080600181540180825580915050906001820390600052602060002001600090919290919091509060001916905550826000808e600019166000191681526020019081526020016000206000828254019250508190555060646000808e600019166000191681526020019081526020016000205481151561152557fe5b046000808d6000191660001916815260200190815260200160002060008282540192505081905550600160008d600019166000191681526020019081526020016000206002019050808b908060018154018082558091505090600182039060005260206000200160009091929091909150906000191690555080600160008e600019166000191681526020019081526020016000206002019080546115cb92919061195c565b5060018060008d6000191660001916815260200190815260200160002060000160018282829054906101000a900460ff160392506101000a81548160ff021916908360ff1602179055508a600019167f3d253a4ee1263d0a7b88ac798601336c374653c7470683bd4ca4d2af1a0780a0600260008f6000191660001916815260200190815260200160002060405180806020018281038252838181546001816001161561010002031660029004815260200191508054600181600116156101000203166002900480156116df5780601f106116b4576101008083540402835291602001916116df565b820191906000526020600020905b8154815290600101906020018083116116c257829003601f168201915b50509250505060405180910390a28b600019167fbb7e370981f80ba873451e1231b05df178f261fe9eaf1854dc1e989b93d44ff5600260008e600019166000191681526020019081526020016000208d604051808060200183600019166000191681526020018281038252848181546001816001161561010002031660029004815260200191508054600181600116156101000203166002900480156117c65780601f1061179b576101008083540402835291602001916117c6565b820191906000526020600020905b8154815290600101906020018083116117a957829003601f168201915b5050935050505060405180910390a2505050505050505050505050565b60008060008060066000868152602001908152602001600020600890805461180c92919061195c565b508592508591505b6008805490508210156118c45760046000868152602001908152602001600020600060088581548110151561184557fe5b9060005260206000200154600019166000191681526020019081526020016000205460046000878152602001908152602001600020600060088581548110151561188b57fe5b9060005260206000200154600019166000191681526020019081526020016000205410156118b7578192505b8180600101925050611814565b858314156118d55760009350611953565b6008868154811015156118e457fe5b9060005260206000200154905060088381548110151561190057fe5b906000526020600020015460088781548110151561191a57fe5b9060005260206000200181600019169055508060088481548110151561193c57fe5b906000526020600020018160001916905550600193505b50505092915050565b82805482825590600052602060002090810192821561199d5760005260206000209182015b8281111561199c578254825591600101919060010190611981565b5b5090506119aa9190611a5a565b5090565b828054600181600116156101000203166002900490600052602060002090601f016020900481019282601f106119ef57805160ff1916838001178555611a1d565b82800160010185558215611a1d579182015b82811115611a1c578251825591602001919060010190611a01565b5b509050611a2a9190611a7f565b5090565b815481835581811115611a5557818360005260206000209182019101611a549190611a5a565b5b505050565b611a7c91905b80821115611a78576000816000905550600101611a60565b5090565b90565b611aa191905b80821115611a9d576000816000905550600101611a85565b5090565b905600a165627a7a723058208a46a26ffff3b8e857610618d7920e9a11cf1ceea5e48b6dc3e70968bf9d5d950029",
  "source": "pragma solidity ^0.4.20;\n\ncontract Reputation{\n\n    struct Profile{\n        uint8 send;\n        uint8 recommend;\n        bytes32[] reqs;\n        bytes32[] recs;\n    }\n    \n    mapping(bytes32=>uint) _repo;\n    mapping(bytes32=>Profile) status;\n    mapping(bytes32=>string) _names;\n    bytes32[] enrolled;\n    mapping(uint=>mapping(bytes32=>uint)) skillScore;\n    mapping(string=>uint) skillIds;\n    mapping(uint=>bytes32[]) skillWiseaddr;\n    \n    uint skillCtr;\n    \n    \n    event Requested(bytes32 indexed _id, string _name, string skill, bytes32 _to);\n    event Recommended(bytes32 indexed _id, string _name);\n    event Received(bytes32 indexed _id, string _from, bytes32 _fromId);\n    event attested(bytes32 indexed _toId, bytes32 indexed _fromId);\n    \n    function requestRecommendation(bytes32 _from, bytes32 _to,string skill) public returns(bool){\n        require(_from!=bytes32(0) && _to!=bytes32(0) && _from!=_to);\n        //adding to request queue of recommender\n        uint no;\n        if(skillIds[skill]==0 && skillCtr==0){\n            skillIds[skill]=skillCtr;\n            skillCtr+=1;\n        }\n        bytes32[] _reqs=status[_to].reqs;\n        _reqs.push(_from);\n        status[_to].reqs=_reqs;\n        status[_from].send-=1;\n        emit Requested(_from, _names[_from],skill,_to);\n        return true;\n    }\n    \n    function recommend(bytes32 _to,bytes32 _from, uint _percentage,string skill){\n        //requires\n        bytes32[] _reqs=status[_from].reqs;\n        bytes32[] _recs=status[_to].recs;\n        if(_reqs.length==1 && _reqs[0] == _to){\n          delete _reqs[_reqs.length-1];\n         _reqs.length--;}\n        else{\n           uint index; uint j; bool check;\n           for( j=0;j<=_reqs.length-1;j++){\n              if(_reqs[j] == _to){\n                  index=j;\n                  check=true;\n                  break;\n          }}\n          if(check){\n            for ( j = index; j<_reqs.length-1; j++){\n                _reqs[j] = _reqs[j+1];\n            }\n            delete _reqs[_reqs.length-1];\n            _reqs.length--;\n            \n        }\n        else{\n            revert();\n        }\n        \n       }\n       status[_from].reqs=_reqs;\n       \n       uint update=_repo[_from]*_percentage;\n       update=update/100;\n       uint no=skillIds[skill];\n       skillScore[no][_to]+=update;\n      skillWiseaddr[no].push(_to);\n     \n       _repo[_to]+=update;\n       \n       _repo[_from]+=_repo[_to]/100;\n       \n       bytes32[] rec=status[_to].recs;\n       rec.push(_from);\n       status[_to].recs=rec;\n      \n    \n       status[_from].recommend-=1;\n        \n       //events\n       emit Recommended(_from, _names[_to]);\n       emit Received(_to, _names[_from], _from);\n    \n      \n    }\n    \n    function getRepo(bytes32 _id) view returns (uint){\n        return _repo[_id];\n    }\n    \n    \n    function register(string name,uint repo,bytes32 _id) public{\n        require(repo!=0 && _id!=bytes32(0));\n        _repo[_id]=repo;\n         enrolled.push(_id);\n         _names[_id]=name;\n           \n    }\n    \n    function refilTokens() public{\n        for(uint i=0;i<enrolled.length;i++){\n            Profile p=status[enrolled[i]];\n            p.send=5;\n            p.recommend=5;\n        }\n    }\n    \n    function addUniv(bytes32 _id) public{\n        _repo[_id]=50;\n    }\n    \n    function updateRepo(bytes32 _id,uint repo) public{\n        //requires\n        _repo[_id]=_repo[_id]+repo;\n    }\n    \n    function getName(bytes32 _id) view public returns(string){\n        return _names[_id];\n    }\n    /*\n    function addSkill(string name) public{\n        skillNames[name]=skillCtr;\n        skillCtr+=1;\n        \n    }*/\n    \n    //skill to request\n    \n    function attest(bytes32 _to, bytes32 _from) public{\n        uint repo_user=_repo[_to];\n        uint repo_univ=_repo[_from];\n        uint update1=repo_user*3;\n        update1=update1/100;\n        uint update2=repo_univ*10;\n        update2=update2/100;\n        _repo[_to]+=update2;\n        _repo[_from]+=update1;\n        emit attested(_to,_from);\n        \n    }\n    \n    function getRequests(bytes32 id) public view returns(bytes32[]){\n        return status[id].reqs;\n    }\n    \n     function getRecs(bytes32 id) public view returns(bytes32[]){\n        return status[id].recs;\n    }\n    \n    function getSkillScore(bytes32 id, string skill) view public returns(uint){\n        return skillScore[skillIds[skill]][id];\n    }\n    function getSkillAddr(string skill) returns (bytes32[]){\n        return skillWiseaddr[skillIds[skill]];\n        \n    }\n    bytes32[] sortedArray;\n    \n    function sort_item(uint pos,uint no) internal returns (bool) {\n         sortedArray=skillWiseaddr[no];\n        uint w_min = pos;\n        for(uint i = pos;i < sortedArray.length;i++) {\n            if(skillScore[no][sortedArray[i]] < skillScore[no][sortedArray[w_min]]) {\n                w_min = i;\n            }\n        }\n        if(w_min == pos) return false;\n        bytes32 tmp = sortedArray[pos];\n        sortedArray[pos] = sortedArray[w_min];\n        sortedArray[w_min] = tmp;\n        return true;\n    }\n    \n \n    function sort(string skill) public returns(bytes32[]) {\n        uint no=skillIds[skill];\n        sortedArray=skillWiseaddr[no];\n        for(uint i = 0;i < sortedArray.length-1;i++) {\n            sort_item(i,no);\n        }\n        return sortedArray;\n    }\n    \n    \n}",
  "sourcePath": "/Users/vmankena/Documents/blockchain-git/udyog/contracts/Reputation.sol",
  "compiler": {
    "name": "solc",
    "version": "0.4.24+commit.e67f0147.Emscripten.clang"
  },
  "schemaVersion": "2.0.0",
  "updatedAt": "2018-07-14T05:23:07.202Z"
}