{
  "contractName": "Reputation",
  "abi": [
    {
      "constant": true,
      "inputs": [],
      "name": "num",
      "outputs": [
        {
          "name": "",
          "type": "uint256"
        }
      ],
      "payable": false,
      "stateMutability": "view",
      "type": "function"
    },
    {
      "anonymous": false,
      "inputs": [
        {
          "indexed": true,
          "name": "_id",
          "type": "bytes32"
        },
        {
          "indexed": false,
          "name": "_name",
          "type": "string"
        },
        {
          "indexed": false,
          "name": "skill",
          "type": "string"
        }
      ],
      "name": "Requested",
      "type": "event"
    },
    {
      "anonymous": false,
      "inputs": [
        {
          "indexed": true,
          "name": "_id",
          "type": "bytes32"
        },
        {
          "indexed": false,
          "name": "_name",
          "type": "string"
        }
      ],
      "name": "Recommended",
      "type": "event"
    },
    {
      "anonymous": false,
      "inputs": [
        {
          "indexed": true,
          "name": "_id",
          "type": "bytes32"
        },
        {
          "indexed": false,
          "name": "_from",
          "type": "string"
        },
        {
          "indexed": false,
          "name": "_fromId",
          "type": "bytes32"
        }
      ],
      "name": "Received",
      "type": "event"
    },
    {
      "anonymous": false,
      "inputs": [
        {
          "indexed": true,
          "name": "_toId",
          "type": "bytes32"
        },
        {
          "indexed": true,
          "name": "_fromId",
          "type": "bytes32"
        }
      ],
      "name": "attested",
      "type": "event"
    },
    {
      "constant": false,
      "inputs": [
        {
          "name": "_from",
          "type": "bytes32"
        },
        {
          "name": "_to",
          "type": "bytes32"
        },
        {
          "name": "skill",
          "type": "string"
        }
      ],
      "name": "requestRecommendation",
      "outputs": [
        {
          "name": "",
          "type": "bool"
        }
      ],
      "payable": false,
      "stateMutability": "nonpayable",
      "type": "function"
    },
    {
      "constant": false,
      "inputs": [
        {
          "name": "_to",
          "type": "bytes32"
        },
        {
          "name": "_from",
          "type": "bytes32"
        },
        {
          "name": "_percentage",
          "type": "uint256"
        },
        {
          "name": "skill",
          "type": "string"
        }
      ],
      "name": "recommend",
      "outputs": [],
      "payable": false,
      "stateMutability": "nonpayable",
      "type": "function"
    },
    {
      "constant": true,
      "inputs": [
        {
          "name": "_id",
          "type": "bytes32"
        }
      ],
      "name": "getRepo",
      "outputs": [
        {
          "name": "",
          "type": "uint256"
        }
      ],
      "payable": false,
      "stateMutability": "view",
      "type": "function"
    },
    {
      "constant": false,
      "inputs": [
        {
          "name": "name",
          "type": "string"
        },
        {
          "name": "repo",
          "type": "uint256"
        },
        {
          "name": "_id",
          "type": "bytes32"
        }
      ],
      "name": "register",
      "outputs": [],
      "payable": false,
      "stateMutability": "nonpayable",
      "type": "function"
    },
    {
      "constant": false,
      "inputs": [],
      "name": "refilTokens",
      "outputs": [],
      "payable": false,
      "stateMutability": "nonpayable",
      "type": "function"
    },
    {
      "constant": false,
      "inputs": [
        {
          "name": "s",
          "type": "uint256"
        }
      ],
      "name": "addNum",
      "outputs": [],
      "payable": false,
      "stateMutability": "nonpayable",
      "type": "function"
    },
    {
      "constant": false,
      "inputs": [
        {
          "name": "_id",
          "type": "bytes32"
        }
      ],
      "name": "addUniv",
      "outputs": [],
      "payable": false,
      "stateMutability": "nonpayable",
      "type": "function"
    },
    {
      "constant": false,
      "inputs": [
        {
          "name": "_id",
          "type": "bytes32"
        },
        {
          "name": "repo",
          "type": "uint256"
        }
      ],
      "name": "updateRepo",
      "outputs": [],
      "payable": false,
      "stateMutability": "nonpayable",
      "type": "function"
    },
    {
      "constant": true,
      "inputs": [
        {
          "name": "_id",
          "type": "bytes32"
        }
      ],
      "name": "getName",
      "outputs": [
        {
          "name": "",
          "type": "string"
        }
      ],
      "payable": false,
      "stateMutability": "view",
      "type": "function"
    },
    {
      "constant": false,
      "inputs": [
        {
          "name": "_to",
          "type": "bytes32"
        },
        {
          "name": "_from",
          "type": "bytes32"
        }
      ],
      "name": "attest",
      "outputs": [],
      "payable": false,
      "stateMutability": "nonpayable",
      "type": "function"
    },
    {
      "constant": true,
      "inputs": [
        {
          "name": "id",
          "type": "bytes32"
        }
      ],
      "name": "getRequests",
      "outputs": [
        {
          "name": "",
          "type": "bytes32[]"
        }
      ],
      "payable": false,
      "stateMutability": "view",
      "type": "function"
    },
    {
      "constant": true,
      "inputs": [
        {
          "name": "id",
          "type": "bytes32"
        }
      ],
      "name": "getRecs",
      "outputs": [
        {
          "name": "",
          "type": "bytes32[]"
        }
      ],
      "payable": false,
      "stateMutability": "view",
      "type": "function"
    }
  ],
  "bytecode": "0x608060405234801561001057600080fd5b50611543806100206000396000f3006080604052600436106100c4576000357c0100000000000000000000000000000000000000000000000000000000900463ffffffff1680629a8930146100c957806332e7a848146101665780633a215537146101ec5780634e70b1dc1461023157806354b8d5e31461025c5780635a20d6c614610306578063752783621461038c5780638acbf78e146103b9578063a1a62070146103f8578063a8fc100a14610429578063b94624fe146104aa578063cf957f69146104e5578063f570e4dd146104fc575b600080fd5b3480156100d557600080fd5b5061014c60048036038101908080356000191690602001909291908035600019169060200190929190803590602001908201803590602001908080601f016020809104026020016040519081016040528093929190818152602001838380828437820191505050505050919291929050505061058b565b604051808215151515815260200191505060405180910390f35b34801561017257600080fd5b50610195600480360381019080803560001916906020019092919050505061096f565b6040518080602001828103825283818151815260200191508051906020019060200280838360005b838110156101d85780820151818401526020810190506101bd565b505050509050019250505060405180910390f35b3480156101f857600080fd5b5061021b60048036038101908080356000191690602001909291905050506109e9565b6040518082815260200191505060405180910390f35b34801561023d57600080fd5b50610246610a0e565b6040518082815260200191505060405180910390f35b34801561026857600080fd5b5061028b6004803603810190808035600019169060200190929190505050610a14565b6040518080602001828103825283818151815260200191508051906020019080838360005b838110156102cb5780820151818401526020810190506102b0565b50505050905090810190601f1680156102f85780820380516001836020036101000a031916815260200191505b509250505060405180910390f35b34801561031257600080fd5b506103356004803603810190808035600019169060200190929190505050610ad1565b6040518080602001828103825283818151815260200191508051906020019060200280838360005b8381101561037857808201518184015260208101905061035d565b505050509050019250505060405180910390f35b34801561039857600080fd5b506103b760048036038101908080359060200190929190505050610b4b565b005b3480156103c557600080fd5b506103f660048036038101908080356000191690602001909291908035600019169060200190929190505050610b55565b005b34801561040457600080fd5b506104276004803603810190808035600019169060200190929190505050610c51565b005b34801561043557600080fd5b506104a8600480360381019080803590602001908201803590602001908080601f0160208091040260200160405190810160405280939291908181526020018383808284378201915050505050509192919290803590602001909291908035600019169060200190929190505050610c75565b005b3480156104b657600080fd5b506104e3600480360381019080803560001916906020019092919080359060200190929190505050610d24565b005b3480156104f157600080fd5b506104fa610d65565b005b34801561050857600080fd5b506105896004803603810190808035600019169060200190929190803560001916906020019092919080359060200190929190803590602001908201803590602001908080601f0160208091040260200160405190810160405280939291908181526020018383808284378201915050505050509192919290505050610dfd565b005b600080600080600102600019168660001916141580156105b75750600060010260001916856000191614155b80156105cb57508460001916866000191614155b15156105d657600080fd5b60006006856040518082805190602001908083835b60208310151561061057805182526020820191506020810190506020830392506105eb565b6001836020036101000a03801982511681845116808217855250505050505090500191505090815260200160405180910390205414801561065357506000600754145b156106e5576007546006856040518082805190602001908083835b602083101515610693578051825260208201915060208101905060208303925061066e565b6001836020036101000a03801982511681845116808217855250505050505090500191505090815260200160405180910390208190555060075491506001600760008282540192505081905550610754565b6006846040518082805190602001908083835b60208310151561071d57805182526020820191506020810190506020830392506106f8565b6001836020036101000a03801982511681845116808217855250505050505090500191505090815260200160405180910390205491505b600260008660001916600019168152602001908152602001600020600101905080869080600181540180825580915050906001820390600052602060002001600090919290919091509060001916905550806002600087600019166000191681526020019081526020016000206001019080546107d29291906113cf565b50600160026000886000191660001916815260200190815260200160002060000160008282829054906101000a900460ff160392506101000a81548160ff021916908360ff16021790555085600019167fbb4f039653ebb0b5601532bd592770095a314ff0ec5e351b0a99f0f6f5484983600360008960001916600019168152602001908152602001600020866040518080602001806020018381038352858181546001816001161561010002031660029004815260200191508054600181600116156101000203166002900480156108ec5780601f106108c1576101008083540402835291602001916108ec565b820191906000526020600020905b8154815290600101906020018083116108cf57829003601f168201915b5050838103825284818151815260200191508051906020019080838360005b8381101561092657808201518184015260208101905061090b565b50505050905090810190601f1680156109535780820380516001836020036101000a031916815260200191505b5094505050505060405180910390a26001925050509392505050565b60606002600083600019166000191681526020019081526020016000206001018054806020026020016040519081016040528092919081815260200182805480156109dd57602002820191906000526020600020905b815460001916815260200190600101908083116109c5575b50505050509050919050565b6000600160008360001916600019168152602001908152602001600020549050919050565b60005481565b60606003600083600019166000191681526020019081526020016000208054600181600116156101000203166002900480601f016020809104026020016040519081016040528092919081815260200182805460018160011615610100020316600290048015610ac55780601f10610a9a57610100808354040283529160200191610ac5565b820191906000526020600020905b815481529060010190602001808311610aa857829003601f168201915b50505050509050919050565b6060600260008360001916600019168152602001908152602001600020600201805480602002602001604051908101604052809291908181526020018280548015610b3f57602002820191906000526020600020905b81546000191681526020019060010190808311610b27575b50505050509050919050565b8060008190555050565b600080600080600160008760001916600019168152602001908152602001600020549350600160008660001916600019168152602001908152602001600020549250600384029150606482811515610ba957fe5b049150600a83029050606481811515610bbe57fe5b04905080600160008860001916600019168152602001908152602001600020600082825401925050819055508160016000876000191660001916815260200190815260200160002060008282540192505081905550846000191686600019167f80f44bef7de40cb989d35de0ea89adc77ab0ecad6ae24a9b070ea9ca518a958d60405160405180910390a3505050505050565b60326001600083600019166000191681526020019081526020016000208190555050565b60008214158015610c925750600060010260001916816000191614155b1515610c9d57600080fd5b81600160008360001916600019168152602001908152602001600020819055506004819080600181540180825580915050906001820390600052602060002001600090919290919091509060001916905550826003600083600019166000191681526020019081526020016000209080519060200190610d1e929190611421565b50505050565b806001600084600019166000191681526020019081526020016000205401600160008460001916600019168152602001908152602001600020819055505050565b600080600091505b600480549050821015610df95760026000600484815481101515610d8d57fe5b906000526020600020015460001916600019168152602001908152602001600020905060058160000160006101000a81548160ff021916908360ff16021790555060058160000160016101000a81548160ff021916908360ff1602179055508180600101925050610d6d565b5050565b600080600080600080600080600260008c600019166000191681526020019081526020016000206001019750600260008d60001916600019168152602001908152602001600020600201965060018880549050148015610e7d57508b60001916886000815481101515610e6c57fe5b906000526020600020015460001916145b15610ebf57876001898054905003815481101515610e9757fe5b906000526020600020016000905587805480919060019003610eb991906114a1565b50610fba565b600094505b600188805490500385111515610f15578b600019168886815481101515610ee757fe5b9060005260206000200154600019161415610f085784955060019350610f15565b8480600101955050610ec4565b8315610fb4578594505b6001888054905003851015610f77578760018601815481101515610f3f57fe5b90600052602060002001548886815481101515610f5857fe5b9060005260206000200181600019169055508480600101955050610f1f565b876001898054905003815481101515610f8c57fe5b906000526020600020016000905587805480919060019003610fae91906114a1565b50610fb9565b600080fd5b5b87600260008d60001916600019168152602001908152602001600020600101908054610fe79291906113cf565b5089600160008d600019166000191681526020019081526020016000205402925060648381151561101457fe5b0492506006896040518082805190602001908083835b60208310151561104f578051825260208201915060208101905060208303925061102a565b6001836020036101000a0380198251168184511680821785525050505050509050019150509081526020016040518091039020549150826005600084815260200190815260200160002060008e600019166000191681526020019081526020016000206000828254019250508190555082600160008e60001916600019168152602001908152602001600020600082825401925050819055506064600160008e600019166000191681526020019081526020016000205481151561110f57fe5b04600160008d6000191660001916815260200190815260200160002060008282540192505081905550600260008d600019166000191681526020019081526020016000206002019050808b908060018154018082558091505090600182039060005260206000200160009091929091909150906000191690555080600260008e600019166000191681526020019081526020016000206002019080546111b69291906113cf565b506001600260008d6000191660001916815260200190815260200160002060000160018282829054906101000a900460ff160392506101000a81548160ff021916908360ff1602179055508a600019167f3d253a4ee1263d0a7b88ac798601336c374653c7470683bd4ca4d2af1a0780a0600360008f6000191660001916815260200190815260200160002060405180806020018281038252838181546001816001161561010002031660029004815260200191508054600181600116156101000203166002900480156112cb5780601f106112a0576101008083540402835291602001916112cb565b820191906000526020600020905b8154815290600101906020018083116112ae57829003601f168201915b50509250505060405180910390a28b600019167fbb7e370981f80ba873451e1231b05df178f261fe9eaf1854dc1e989b93d44ff5600360008e600019166000191681526020019081526020016000208d604051808060200183600019166000191681526020018281038252848181546001816001161561010002031660029004815260200191508054600181600116156101000203166002900480156113b25780601f10611387576101008083540402835291602001916113b2565b820191906000526020600020905b81548152906001019060200180831161139557829003601f168201915b5050935050505060405180910390a2505050505050505050505050565b8280548282559060005260206000209081019282156114105760005260206000209182015b8281111561140f5782548255916001019190600101906113f4565b5b50905061141d91906114cd565b5090565b828054600181600116156101000203166002900490600052602060002090601f016020900481019282601f1061146257805160ff1916838001178555611490565b82800160010185558215611490579182015b8281111561148f578251825591602001919060010190611474565b5b50905061149d91906114f2565b5090565b8154818355818111156114c8578183600052602060002091820191016114c791906114cd565b5b505050565b6114ef91905b808211156114eb5760008160009055506001016114d3565b5090565b90565b61151491905b808211156115105760008160009055506001016114f8565b5090565b905600a165627a7a723058206aa5e6637f7c5e100341c253fc6237622b223d81f80df4c7f2a414c1026907360029",
  "source": "pragma solidity ^0.4.20;\n\ncontract Reputation{\n\n    struct Profile{\n        uint8 send;\n        uint8 recommend;\n        bytes32[] reqs;\n        bytes32[] recs;\n    }\n\n    uint public num;    \n    mapping(bytes32=>uint) _repo;\n    mapping(bytes32=>Profile) status;\n    mapping(bytes32=>string) _names;\n    bytes32[] enrolled;\n    mapping(uint=>mapping(bytes32=>uint)) skillScore;\n    mapping(string=>uint) skillNames;\n    uint skillCtr;\n    \n    event Requested(bytes32 indexed _id, string _name, string skill);\n    event Recommended(bytes32 indexed _id, string _name);\n    event Received(bytes32 indexed _id, string _from, bytes32 _fromId);\n    event attested(bytes32 indexed _toId, bytes32 indexed _fromId);\n    \n    function requestRecommendation(bytes32 _from, bytes32 _to,string skill) public returns(bool){\n        require(_from!=bytes32(0) && _to!=bytes32(0) && _from!=_to);\n        //adding to request queue of recommender\n        uint no;\n        if(skillNames[skill]==0 && skillCtr==0){\n            skillNames[skill]=skillCtr;\n             no=skillCtr;\n            skillCtr+=1;\n        }\n        else{\n           no=skillNames[skill]; \n        }\n        bytes32[] _reqs=status[_to].reqs;\n        _reqs.push(_from);\n        status[_to].reqs=_reqs;\n        status[_from].send-=1;\n        emit Requested(_from, _names[_from],skill);\n        return true;\n    }\n    \n    function recommend(bytes32 _to,bytes32 _from, uint _percentage,string skill){\n        //requires\n        bytes32[] _reqs=status[_from].reqs;\n        bytes32[] _recs=status[_to].recs;\n        if(_reqs.length==1 && _reqs[0] == _to){\n          delete _reqs[_reqs.length-1];\n         _reqs.length--;}\n        else{\n           uint index; uint j; bool check;\n           for( j=0;j<=_reqs.length-1;j++){\n              if(_reqs[j] == _to){\n                  index=j;\n                  check=true;\n                  break;\n          }}\n          if(check){\n            for ( j = index; j<_reqs.length-1; j++){\n                _reqs[j] = _reqs[j+1];\n            }\n            delete _reqs[_reqs.length-1];\n            _reqs.length--;\n            \n        }\n        else{\n            revert();\n        }\n        \n       }\n       status[_from].reqs=_reqs;\n       \n       uint update=_repo[_from]*_percentage;\n       update=update/100;\n       uint no=skillNames[skill];\n       skillScore[no][_to]+=update;\n       _repo[_to]+=update;\n       \n       _repo[_from]+=_repo[_to]/100;\n       \n       bytes32[] rec=status[_to].recs;\n       rec.push(_from);\n       status[_to].recs=rec;\n       \n    \n       status[_from].recommend-=1;\n        \n       //events\n       emit Recommended(_from, _names[_to]);\n       emit Received(_to, _names[_from], _from);\n    \n      \n    }\n    \n    function getRepo(bytes32 _id) view returns (uint){\n        return _repo[_id];\n    }\n    \n    \n    function register(string name,uint repo,bytes32 _id) public{\n        require(repo!=0 && _id!=bytes32(0));\n        _repo[_id]=repo;\n        \n         enrolled.push(_id);\n         _names[_id]=name;\n           \n    }\n    \n    function refilTokens() public{\n        for(uint i=0;i<enrolled.length;i++){\n            Profile p=status[enrolled[i]];\n            p.send=5;\n            p.recommend=5;\n        }\n    }\n    \n    function addNum(uint s) public {\n        num = s;\n    }\n    function addUniv(bytes32 _id) public{\n        _repo[_id]=50;\n    }\n    \n    function updateRepo(bytes32 _id,uint repo) public{\n        //requires\n        _repo[_id]=_repo[_id]+repo;\n    }\n    \n    function getName(bytes32 _id) view public returns(string){\n        return _names[_id];\n    }\n    /*\n    function addSkill(string name) public{\n        skillNames[name]=skillCtr;\n        skillCtr+=1;\n        \n    }*/\n    \n    //skill to request\n    \n    function attest(bytes32 _to, bytes32 _from) public{\n        uint repo_user=_repo[_to];\n        uint repo_univ=_repo[_from];\n        uint update1=repo_user*3;\n        update1=update1/100;\n        uint update2=repo_univ*10;\n        update2=update2/100;\n        _repo[_to]+=update2;\n        _repo[_from]+=update1;\n        emit attested(_to,_from);\n        \n    }\n    \n    function getRequests(bytes32 id) public view returns(bytes32[]){\n        return status[id].reqs;\n    }\n    \n     function getRecs(bytes32 id) public view returns(bytes32[]){\n        return status[id].recs;\n    }\n    \n    \n    \n}\n",
  "sourcePath": "/Users/vmankena/Documents/blockchain-git/udyog/contracts/Reputation.sol",
  "compiler": {
    "name": "solc",
    "version": "0.4.24+commit.e67f0147.Emscripten.clang"
  },
  "schemaVersion": "2.0.0",
  "updatedAt": "2018-07-13T21:11:08.577Z"
}